{
  "_format": "hh-sol-artifact-1",
  "contractName": "ArtistNFT",
  "sourceName": "contracts/ArtistNFT.sol",
  "abi": [
    {
      "inputs": [],
      "stateMutability": "nonpayable",
      "type": "constructor"
    },
    {
      "anonymous": false,
      "inputs": [
        {
          "indexed": true,
          "internalType": "address",
          "name": "owner",
          "type": "address"
        },
        {
          "indexed": true,
          "internalType": "address",
          "name": "approved",
          "type": "address"
        },
        {
          "indexed": true,
          "internalType": "uint256",
          "name": "tokenId",
          "type": "uint256"
        }
      ],
      "name": "Approval",
      "type": "event"
    },
    {
      "anonymous": false,
      "inputs": [
        {
          "indexed": true,
          "internalType": "address",
          "name": "owner",
          "type": "address"
        },
        {
          "indexed": true,
          "internalType": "address",
          "name": "operator",
          "type": "address"
        },
        {
          "indexed": false,
          "internalType": "bool",
          "name": "approved",
          "type": "bool"
        }
      ],
      "name": "ApprovalForAll",
      "type": "event"
    },
    {
      "anonymous": false,
      "inputs": [
        {
          "indexed": false,
          "internalType": "uint256",
          "name": "_fromTokenId",
          "type": "uint256"
        },
        {
          "indexed": false,
          "internalType": "uint256",
          "name": "_toTokenId",
          "type": "uint256"
        }
      ],
      "name": "BatchMetadataUpdate",
      "type": "event"
    },
    {
      "anonymous": false,
      "inputs": [
        {
          "indexed": false,
          "internalType": "uint256",
          "name": "_tokenId",
          "type": "uint256"
        }
      ],
      "name": "MetadataUpdate",
      "type": "event"
    },
    {
      "anonymous": false,
      "inputs": [
        {
          "indexed": true,
          "internalType": "address",
          "name": "from",
          "type": "address"
        },
        {
          "indexed": true,
          "internalType": "address",
          "name": "to",
          "type": "address"
        },
        {
          "indexed": true,
          "internalType": "uint256",
          "name": "tokenId",
          "type": "uint256"
        }
      ],
      "name": "Transfer",
      "type": "event"
    },
    {
      "inputs": [
        {
          "internalType": "address",
          "name": "to",
          "type": "address"
        },
        {
          "internalType": "uint256",
          "name": "tokenId",
          "type": "uint256"
        }
      ],
      "name": "approve",
      "outputs": [],
      "stateMutability": "nonpayable",
      "type": "function"
    },
    {
      "inputs": [
        {
          "internalType": "address",
          "name": "owner",
          "type": "address"
        }
      ],
      "name": "balanceOf",
      "outputs": [
        {
          "internalType": "uint256",
          "name": "",
          "type": "uint256"
        }
      ],
      "stateMutability": "view",
      "type": "function"
    },
    {
      "inputs": [
        {
          "internalType": "uint256",
          "name": "tokenId",
          "type": "uint256"
        }
      ],
      "name": "getApproved",
      "outputs": [
        {
          "internalType": "address",
          "name": "",
          "type": "address"
        }
      ],
      "stateMutability": "view",
      "type": "function"
    },
    {
      "inputs": [
        {
          "internalType": "address",
          "name": "owner",
          "type": "address"
        },
        {
          "internalType": "address",
          "name": "operator",
          "type": "address"
        }
      ],
      "name": "isApprovedForAll",
      "outputs": [
        {
          "internalType": "bool",
          "name": "",
          "type": "bool"
        }
      ],
      "stateMutability": "view",
      "type": "function"
    },
    {
      "inputs": [
        {
          "internalType": "address",
          "name": "artist",
          "type": "address"
        },
        {
          "internalType": "string",
          "name": "tokenURI_",
          "type": "string"
        }
      ],
      "name": "mint",
      "outputs": [
        {
          "internalType": "uint256",
          "name": "",
          "type": "uint256"
        }
      ],
      "stateMutability": "nonpayable",
      "type": "function"
    },
    {
      "inputs": [],
      "name": "name",
      "outputs": [
        {
          "internalType": "string",
          "name": "",
          "type": "string"
        }
      ],
      "stateMutability": "view",
      "type": "function"
    },
    {
      "inputs": [
        {
          "internalType": "uint256",
          "name": "tokenId",
          "type": "uint256"
        }
      ],
      "name": "ownerOf",
      "outputs": [
        {
          "internalType": "address",
          "name": "",
          "type": "address"
        }
      ],
      "stateMutability": "view",
      "type": "function"
    },
    {
      "inputs": [
        {
          "internalType": "address",
          "name": "from",
          "type": "address"
        },
        {
          "internalType": "address",
          "name": "to",
          "type": "address"
        },
        {
          "internalType": "uint256",
          "name": "tokenId",
          "type": "uint256"
        }
      ],
      "name": "safeTransferFrom",
      "outputs": [],
      "stateMutability": "nonpayable",
      "type": "function"
    },
    {
      "inputs": [
        {
          "internalType": "address",
          "name": "from",
          "type": "address"
        },
        {
          "internalType": "address",
          "name": "to",
          "type": "address"
        },
        {
          "internalType": "uint256",
          "name": "tokenId",
          "type": "uint256"
        },
        {
          "internalType": "bytes",
          "name": "data",
          "type": "bytes"
        }
      ],
      "name": "safeTransferFrom",
      "outputs": [],
      "stateMutability": "nonpayable",
      "type": "function"
    },
    {
      "inputs": [
        {
          "internalType": "address",
          "name": "operator",
          "type": "address"
        },
        {
          "internalType": "bool",
          "name": "approved",
          "type": "bool"
        }
      ],
      "name": "setApprovalForAll",
      "outputs": [],
      "stateMutability": "nonpayable",
      "type": "function"
    },
    {
      "inputs": [
        {
          "internalType": "bytes4",
          "name": "interfaceId",
          "type": "bytes4"
        }
      ],
      "name": "supportsInterface",
      "outputs": [
        {
          "internalType": "bool",
          "name": "",
          "type": "bool"
        }
      ],
      "stateMutability": "view",
      "type": "function"
    },
    {
      "inputs": [],
      "name": "symbol",
      "outputs": [
        {
          "internalType": "string",
          "name": "",
          "type": "string"
        }
      ],
      "stateMutability": "view",
      "type": "function"
    },
    {
      "inputs": [
        {
          "internalType": "uint256",
          "name": "index",
          "type": "uint256"
        }
      ],
      "name": "tokenByIndex",
      "outputs": [
        {
          "internalType": "uint256",
          "name": "",
          "type": "uint256"
        }
      ],
      "stateMutability": "view",
      "type": "function"
    },
    {
      "inputs": [
        {
          "internalType": "address",
          "name": "owner",
          "type": "address"
        },
        {
          "internalType": "uint256",
          "name": "index",
          "type": "uint256"
        }
      ],
      "name": "tokenOfOwnerByIndex",
      "outputs": [
        {
          "internalType": "uint256",
          "name": "",
          "type": "uint256"
        }
      ],
      "stateMutability": "view",
      "type": "function"
    },
    {
      "inputs": [
        {
          "internalType": "uint256",
          "name": "tokenId",
          "type": "uint256"
        }
      ],
      "name": "tokenURI",
      "outputs": [
        {
          "internalType": "string",
          "name": "",
          "type": "string"
        }
      ],
      "stateMutability": "view",
      "type": "function"
    },
    {
      "inputs": [],
      "name": "totalSupply",
      "outputs": [
        {
          "internalType": "uint256",
          "name": "",
          "type": "uint256"
        }
      ],
      "stateMutability": "view",
      "type": "function"
    },
    {
      "inputs": [
        {
          "internalType": "address",
          "name": "from",
          "type": "address"
        },
        {
          "internalType": "address",
          "name": "to",
          "type": "address"
        },
        {
          "internalType": "uint256",
          "name": "tokenId",
          "type": "uint256"
        }
      ],
      "name": "transferFrom",
      "outputs": [],
      "stateMutability": "nonpayable",
      "type": "function"
    }
  ],
  "bytecode": "0x60806040523480156200001157600080fd5b506040518060400160405280600981526020017f4172746973744e465400000000000000000000000000000000000000000000008152506040518060400160405280600281526020017f414e00000000000000000000000000000000000000000000000000000000000081525081600090816200008f919062000324565b508060019081620000a1919062000324565b5050506200040b565b600081519050919050565b7f4e487b7100000000000000000000000000000000000000000000000000000000600052604160045260246000fd5b7f4e487b7100000000000000000000000000000000000000000000000000000000600052602260045260246000fd5b600060028204905060018216806200012c57607f821691505b602082108103620001425762000141620000e4565b5b50919050565b60008190508160005260206000209050919050565b60006020601f8301049050919050565b600082821b905092915050565b600060088302620001ac7fffffffffffffffffffffffffffffffffffffffffffffffffffffffffffffffff826200016d565b620001b886836200016d565b95508019841693508086168417925050509392505050565b6000819050919050565b6000819050919050565b600062000205620001ff620001f984620001d0565b620001da565b620001d0565b9050919050565b6000819050919050565b6200022183620001e4565b6200023962000230826200020c565b8484546200017a565b825550505050565b600090565b6200025062000241565b6200025d81848462000216565b505050565b5b8181101562000285576200027960008262000246565b60018101905062000263565b5050565b601f821115620002d4576200029e8162000148565b620002a9846200015d565b81016020851015620002b9578190505b620002d1620002c8856200015d565b83018262000262565b50505b505050565b600082821c905092915050565b6000620002f960001984600802620002d9565b1980831691505092915050565b6000620003148383620002e6565b9150826002028217905092915050565b6200032f82620000aa565b67ffffffffffffffff8111156200034b576200034a620000b5565b5b62000357825462000113565b6200036482828562000289565b600060209050601f8311600181146200039c576000841562000387578287015190505b62000393858262000306565b86555062000403565b601f198416620003ac8662000148565b60005b82811015620003d657848901518255600182019150602085019450602081019050620003af565b86831015620003f65784890151620003f2601f891682620002e6565b8355505b6001600288020188555050505b505050505050565b61342c806200041b6000396000f3fe608060405234801561001057600080fd5b506004361061010b5760003560e01c80634f6ccce7116100a2578063a22cb46511610071578063a22cb465146102de578063b88d4fde146102fa578063c87b56dd14610316578063d0def52114610346578063e985e9c5146103765761010b565b80634f6ccce7146102305780636352211e1461026057806370a082311461029057806395d89b41146102c05761010b565b806318160ddd116100de57806318160ddd146101aa57806323b872dd146101c85780632f745c59146101e457806342842e0e146102145761010b565b806301ffc9a71461011057806306fdde0314610140578063081812fc1461015e578063095ea7b31461018e575b600080fd5b61012a600480360381019061012591906120a4565b6103a6565b60405161013791906120ec565b60405180910390f35b6101486103b8565b6040516101559190612197565b60405180910390f35b610178600480360381019061017391906121ef565b61044a565b604051610185919061225d565b60405180910390f35b6101a860048036038101906101a391906122a4565b610490565b005b6101b26105a7565b6040516101bf91906122f3565b60405180910390f35b6101e260048036038101906101dd919061230e565b6105b4565b005b6101fe60048036038101906101f991906122a4565b610614565b60405161020b91906122f3565b60405180910390f35b61022e6004803603810190610229919061230e565b6106b9565b005b61024a600480360381019061024591906121ef565b6106d9565b60405161025791906122f3565b60405180910390f35b61027a600480360381019061027591906121ef565b61074a565b604051610287919061225d565b60405180910390f35b6102aa60048036038101906102a59190612361565b6107d0565b6040516102b791906122f3565b60405180910390f35b6102c8610887565b6040516102d59190612197565b60405180910390f35b6102f860048036038101906102f391906123ba565b610919565b005b610314600480360381019061030f919061252f565b61092f565b005b610330600480360381019061032b91906121ef565b610991565b60405161033d9190612197565b60405180910390f35b610360600480360381019061035b9190612653565b6109a3565b60405161036d91906122f3565b60405180910390f35b610390600480360381019061038b91906126af565b6109da565b60405161039d91906120ec565b60405180910390f35b60006103b182610a6e565b9050919050565b6060600080546103c79061271e565b80601f01602080910402602001604051908101604052809291908181526020018280546103f39061271e565b80156104405780601f1061041557610100808354040283529160200191610440565b820191906000526020600020905b81548152906001019060200180831161042357829003601f168201915b5050505050905090565b600061045582610acf565b6004600083815260200190815260200160002060009054906101000a900473ffffffffffffffffffffffffffffffffffffffff169050919050565b600061049b8261074a565b90508073ffffffffffffffffffffffffffffffffffffffff168373ffffffffffffffffffffffffffffffffffffffff160361050b576040517f08c379a0000000000000000000000000000000000000000000000000000000008152600401610502906127c1565b60405180910390fd5b8073ffffffffffffffffffffffffffffffffffffffff1661052a610b1a565b73ffffffffffffffffffffffffffffffffffffffff161480610559575061055881610553610b1a565b6109da565b5b610598576040517f08c379a000000000000000000000000000000000000000000000000000000000815260040161058f90612853565b60405180910390fd5b6105a28383610b22565b505050565b6000600880549050905090565b6105c56105bf610b1a565b82610bdb565b610604576040517f08c379a00000000000000000000000000000000000000000000000000000000081526004016105fb906128e5565b60405180910390fd5b61060f838383610c70565b505050565b600061061f836107d0565b8210610660576040517f08c379a000000000000000000000000000000000000000000000000000000000815260040161065790612977565b60405180910390fd5b600660008473ffffffffffffffffffffffffffffffffffffffff1673ffffffffffffffffffffffffffffffffffffffff168152602001908152602001600020600083815260200190815260200160002054905092915050565b6106d48383836040518060200160405280600081525061092f565b505050565b60006106e36105a7565b8210610724576040517f08c379a000000000000000000000000000000000000000000000000000000000815260040161071b90612a09565b60405180910390fd5b6008828154811061073857610737612a29565b5b90600052602060002001549050919050565b60008061075683610f69565b9050600073ffffffffffffffffffffffffffffffffffffffff168173ffffffffffffffffffffffffffffffffffffffff16036107c7576040517f08c379a00000000000000000000000000000000000000000000000000000000081526004016107be90612aa4565b60405180910390fd5b80915050919050565b60008073ffffffffffffffffffffffffffffffffffffffff168273ffffffffffffffffffffffffffffffffffffffff1603610840576040517f08c379a000000000000000000000000000000000000000000000000000000000815260040161083790612b36565b60405180910390fd5b600360008373ffffffffffffffffffffffffffffffffffffffff1673ffffffffffffffffffffffffffffffffffffffff168152602001908152602001600020549050919050565b6060600180546108969061271e565b80601f01602080910402602001604051908101604052809291908181526020018280546108c29061271e565b801561090f5780601f106108e45761010080835404028352916020019161090f565b820191906000526020600020905b8154815290600101906020018083116108f257829003601f168201915b5050505050905090565b61092b610924610b1a565b8383610fa6565b5050565b61094061093a610b1a565b83610bdb565b61097f576040517f08c379a0000000000000000000000000000000000000000000000000000000008152600401610976906128e5565b60405180910390fd5b61098b84848484611112565b50505050565b606061099c8261116e565b9050919050565b6000806109b0600b611280565b90506109bc848261128e565b6109c681846114ab565b6109d0600b61154f565b8091505092915050565b6000600560008473ffffffffffffffffffffffffffffffffffffffff1673ffffffffffffffffffffffffffffffffffffffff16815260200190815260200160002060008373ffffffffffffffffffffffffffffffffffffffff1673ffffffffffffffffffffffffffffffffffffffff16815260200190815260200160002060009054906101000a900460ff16905092915050565b6000634906490660e01b7bffffffffffffffffffffffffffffffffffffffffffffffffffffffff1916827bffffffffffffffffffffffffffffffffffffffffffffffffffffffff19161480610ac85750610ac782611565565b5b9050919050565b610ad8816115df565b610b17576040517f08c379a0000000000000000000000000000000000000000000000000000000008152600401610b0e90612aa4565b60405180910390fd5b50565b600033905090565b816004600083815260200190815260200160002060006101000a81548173ffffffffffffffffffffffffffffffffffffffff021916908373ffffffffffffffffffffffffffffffffffffffff160217905550808273ffffffffffffffffffffffffffffffffffffffff16610b958361074a565b73ffffffffffffffffffffffffffffffffffffffff167f8c5be1e5ebec7d5bd14f71427d1e84f3dd0314c0f7b2291e5b200ac8c7c3b92560405160405180910390a45050565b600080610be78361074a565b90508073ffffffffffffffffffffffffffffffffffffffff168473ffffffffffffffffffffffffffffffffffffffff161480610c295750610c2881856109da565b5b80610c6757508373ffffffffffffffffffffffffffffffffffffffff16610c4f8461044a565b73ffffffffffffffffffffffffffffffffffffffff16145b91505092915050565b8273ffffffffffffffffffffffffffffffffffffffff16610c908261074a565b73ffffffffffffffffffffffffffffffffffffffff1614610ce6576040517f08c379a0000000000000000000000000000000000000000000000000000000008152600401610cdd90612bc8565b60405180910390fd5b600073ffffffffffffffffffffffffffffffffffffffff168273ffffffffffffffffffffffffffffffffffffffff1603610d55576040517f08c379a0000000000000000000000000000000000000000000000000000000008152600401610d4c90612c5a565b60405180910390fd5b610d628383836001611620565b8273ffffffffffffffffffffffffffffffffffffffff16610d828261074a565b73ffffffffffffffffffffffffffffffffffffffff1614610dd8576040517f08c379a0000000000000000000000000000000000000000000000000000000008152600401610dcf90612bc8565b60405180910390fd5b6004600082815260200190815260200160002060006101000a81549073ffffffffffffffffffffffffffffffffffffffff02191690556001600360008573ffffffffffffffffffffffffffffffffffffffff1673ffffffffffffffffffffffffffffffffffffffff168152602001908152602001600020600082825403925050819055506001600360008473ffffffffffffffffffffffffffffffffffffffff1673ffffffffffffffffffffffffffffffffffffffff16815260200190815260200160002060008282540192505081905550816002600083815260200190815260200160002060006101000a81548173ffffffffffffffffffffffffffffffffffffffff021916908373ffffffffffffffffffffffffffffffffffffffff160217905550808273ffffffffffffffffffffffffffffffffffffffff168473ffffffffffffffffffffffffffffffffffffffff167fddf252ad1be2c89b69c2b068fc378daa952ba7f163c4a11628f55a4df523b3ef60405160405180910390a4610f648383836001611632565b505050565b60006002600083815260200190815260200160002060009054906101000a900473ffffffffffffffffffffffffffffffffffffffff169050919050565b8173ffffffffffffffffffffffffffffffffffffffff168373ffffffffffffffffffffffffffffffffffffffff1603611014576040517f08c379a000000000000000000000000000000000000000000000000000000000815260040161100b90612cc6565b60405180910390fd5b80600560008573ffffffffffffffffffffffffffffffffffffffff1673ffffffffffffffffffffffffffffffffffffffff16815260200190815260200160002060008473ffffffffffffffffffffffffffffffffffffffff1673ffffffffffffffffffffffffffffffffffffffff16815260200190815260200160002060006101000a81548160ff0219169083151502179055508173ffffffffffffffffffffffffffffffffffffffff168373ffffffffffffffffffffffffffffffffffffffff167f17307eab39ab6107e8899845ad3d59bd9653f200f220920489ca2b5937696c318360405161110591906120ec565b60405180910390a3505050565b61111d848484610c70565b61112984848484611638565b611168576040517f08c379a000000000000000000000000000000000000000000000000000000000815260040161115f90612d58565b60405180910390fd5b50505050565b606061117982610acf565b6000600a600084815260200190815260200160002080546111999061271e565b80601f01602080910402602001604051908101604052809291908181526020018280546111c59061271e565b80156112125780601f106111e757610100808354040283529160200191611212565b820191906000526020600020905b8154815290600101906020018083116111f557829003601f168201915b5050505050905060006112236117bf565b9050600081510361123857819250505061127b565b60008251111561126d578082604051602001611255929190612db4565b6040516020818303038152906040529250505061127b565b611276846117d6565b925050505b919050565b600081600001549050919050565b600073ffffffffffffffffffffffffffffffffffffffff168273ffffffffffffffffffffffffffffffffffffffff16036112fd576040517f08c379a00000000000000000000000000000000000000000000000000000000081526004016112f490612e24565b60405180910390fd5b611306816115df565b15611346576040517f08c379a000000000000000000000000000000000000000000000000000000000815260040161133d90612e90565b60405180910390fd5b611354600083836001611620565b61135d816115df565b1561139d576040517f08c379a000000000000000000000000000000000000000000000000000000000815260040161139490612e90565b60405180910390fd5b6001600360008473ffffffffffffffffffffffffffffffffffffffff1673ffffffffffffffffffffffffffffffffffffffff16815260200190815260200160002060008282540192505081905550816002600083815260200190815260200160002060006101000a81548173ffffffffffffffffffffffffffffffffffffffff021916908373ffffffffffffffffffffffffffffffffffffffff160217905550808273ffffffffffffffffffffffffffffffffffffffff16600073ffffffffffffffffffffffffffffffffffffffff167fddf252ad1be2c89b69c2b068fc378daa952ba7f163c4a11628f55a4df523b3ef60405160405180910390a46114a7600083836001611632565b5050565b6114b4826115df565b6114f3576040517f08c379a00000000000000000000000000000000000000000000000000000000081526004016114ea90612f22565b60405180910390fd5b80600a6000848152602001908152602001600020908161151391906130ee565b507ff8e1a15aba9398e019f0b49df1a4fde98ee17ae345cb5f6b5e2c27f5033e8ce78260405161154391906122f3565b60405180910390a15050565b6001816000016000828254019250508190555050565b60007f780e9d63000000000000000000000000000000000000000000000000000000007bffffffffffffffffffffffffffffffffffffffffffffffffffffffff1916827bffffffffffffffffffffffffffffffffffffffffffffffffffffffff191614806115d857506115d78261183e565b5b9050919050565b60008073ffffffffffffffffffffffffffffffffffffffff1661160183610f69565b73ffffffffffffffffffffffffffffffffffffffff1614159050919050565b61162c84848484611920565b50505050565b50505050565b60006116598473ffffffffffffffffffffffffffffffffffffffff16611a7e565b156117b2578373ffffffffffffffffffffffffffffffffffffffff1663150b7a02611682610b1a565b8786866040518563ffffffff1660e01b81526004016116a49493929190613215565b6020604051808303816000875af19250505080156116e057506040513d601f19601f820116820180604052508101906116dd9190613276565b60015b611762573d8060008114611710576040519150601f19603f3d011682016040523d82523d6000602084013e611715565b606091505b50600081510361175a576040517f08c379a000000000000000000000000000000000000000000000000000000000815260040161175190612d58565b60405180910390fd5b805181602001fd5b63150b7a0260e01b7bffffffffffffffffffffffffffffffffffffffffffffffffffffffff1916817bffffffffffffffffffffffffffffffffffffffffffffffffffffffff1916149150506117b7565b600190505b949350505050565b606060405180602001604052806000815250905090565b60606117e182610acf565b60006117eb6117bf565b9050600081511161180b5760405180602001604052806000815250611836565b8061181584611aa1565b604051602001611826929190612db4565b6040516020818303038152906040525b915050919050565b60007f80ac58cd000000000000000000000000000000000000000000000000000000007bffffffffffffffffffffffffffffffffffffffffffffffffffffffff1916827bffffffffffffffffffffffffffffffffffffffffffffffffffffffff1916148061190957507f5b5e139f000000000000000000000000000000000000000000000000000000007bffffffffffffffffffffffffffffffffffffffffffffffffffffffff1916827bffffffffffffffffffffffffffffffffffffffffffffffffffffffff1916145b80611919575061191882611b6f565b5b9050919050565b61192c84848484611bd9565b6001811115611970576040517f08c379a000000000000000000000000000000000000000000000000000000000815260040161196790613315565b60405180910390fd5b6000829050600073ffffffffffffffffffffffffffffffffffffffff168573ffffffffffffffffffffffffffffffffffffffff16036119b7576119b281611bdf565b6119f6565b8373ffffffffffffffffffffffffffffffffffffffff168573ffffffffffffffffffffffffffffffffffffffff16146119f5576119f48582611c28565b5b5b600073ffffffffffffffffffffffffffffffffffffffff168473ffffffffffffffffffffffffffffffffffffffff1603611a3857611a3381611d95565b611a77565b8473ffffffffffffffffffffffffffffffffffffffff168473ffffffffffffffffffffffffffffffffffffffff1614611a7657611a758482611e66565b5b5b5050505050565b6000808273ffffffffffffffffffffffffffffffffffffffff163b119050919050565b606060006001611ab084611ee5565b01905060008167ffffffffffffffff811115611acf57611ace612404565b5b6040519080825280601f01601f191660200182016040528015611b015781602001600182028036833780820191505090505b509050600082602001820190505b600115611b64578080600190039150507f3031323334353637383961626364656600000000000000000000000000000000600a86061a8153600a8581611b5857611b57613335565b5b04945060008503611b0f575b819350505050919050565b60007f01ffc9a7000000000000000000000000000000000000000000000000000000007bffffffffffffffffffffffffffffffffffffffffffffffffffffffff1916827bffffffffffffffffffffffffffffffffffffffffffffffffffffffff1916149050919050565b50505050565b6008805490506009600083815260200190815260200160002081905550600881908060018154018082558091505060019003906000526020600020016000909190919091505550565b60006001611c35846107d0565b611c3f9190613393565b9050600060076000848152602001908152602001600020549050818114611d24576000600660008673ffffffffffffffffffffffffffffffffffffffff1673ffffffffffffffffffffffffffffffffffffffff168152602001908152602001600020600084815260200190815260200160002054905080600660008773ffffffffffffffffffffffffffffffffffffffff1673ffffffffffffffffffffffffffffffffffffffff168152602001908152602001600020600084815260200190815260200160002081905550816007600083815260200190815260200160002081905550505b6007600084815260200190815260200160002060009055600660008573ffffffffffffffffffffffffffffffffffffffff1673ffffffffffffffffffffffffffffffffffffffff16815260200190815260200160002060008381526020019081526020016000206000905550505050565b60006001600880549050611da99190613393565b9050600060096000848152602001908152602001600020549050600060088381548110611dd957611dd8612a29565b5b906000526020600020015490508060088381548110611dfb57611dfa612a29565b5b906000526020600020018190555081600960008381526020019081526020016000208190555060096000858152602001908152602001600020600090556008805480611e4a57611e496133c7565b5b6001900381819060005260206000200160009055905550505050565b6000611e71836107d0565b905081600660008573ffffffffffffffffffffffffffffffffffffffff1673ffffffffffffffffffffffffffffffffffffffff168152602001908152602001600020600083815260200190815260200160002081905550806007600084815260200190815260200160002081905550505050565b600080600090507a184f03e93ff9f4daa797ed6e38ed64bf6a1f0100000000000000008310611f43577a184f03e93ff9f4daa797ed6e38ed64bf6a1f0100000000000000008381611f3957611f38613335565b5b0492506040810190505b6d04ee2d6d415b85acef81000000008310611f80576d04ee2d6d415b85acef81000000008381611f7657611f75613335565b5b0492506020810190505b662386f26fc100008310611faf57662386f26fc100008381611fa557611fa4613335565b5b0492506010810190505b6305f5e1008310611fd8576305f5e1008381611fce57611fcd613335565b5b0492506008810190505b6127108310611ffd576127108381611ff357611ff2613335565b5b0492506004810190505b60648310612020576064838161201657612015613335565b5b0492506002810190505b600a831061202f576001810190505b80915050919050565b6000604051905090565b600080fd5b600080fd5b60007fffffffff0000000000000000000000000000000000000000000000000000000082169050919050565b6120818161204c565b811461208c57600080fd5b50565b60008135905061209e81612078565b92915050565b6000602082840312156120ba576120b9612042565b5b60006120c88482850161208f565b91505092915050565b60008115159050919050565b6120e6816120d1565b82525050565b600060208201905061210160008301846120dd565b92915050565b600081519050919050565b600082825260208201905092915050565b60005b83811015612141578082015181840152602081019050612126565b60008484015250505050565b6000601f19601f8301169050919050565b600061216982612107565b6121738185612112565b9350612183818560208601612123565b61218c8161214d565b840191505092915050565b600060208201905081810360008301526121b1818461215e565b905092915050565b6000819050919050565b6121cc816121b9565b81146121d757600080fd5b50565b6000813590506121e9816121c3565b92915050565b60006020828403121561220557612204612042565b5b6000612213848285016121da565b91505092915050565b600073ffffffffffffffffffffffffffffffffffffffff82169050919050565b60006122478261221c565b9050919050565b6122578161223c565b82525050565b6000602082019050612272600083018461224e565b92915050565b6122818161223c565b811461228c57600080fd5b50565b60008135905061229e81612278565b92915050565b600080604083850312156122bb576122ba612042565b5b60006122c98582860161228f565b92505060206122da858286016121da565b9150509250929050565b6122ed816121b9565b82525050565b600060208201905061230860008301846122e4565b92915050565b60008060006060848603121561232757612326612042565b5b60006123358682870161228f565b93505060206123468682870161228f565b9250506040612357868287016121da565b9150509250925092565b60006020828403121561237757612376612042565b5b60006123858482850161228f565b91505092915050565b612397816120d1565b81146123a257600080fd5b50565b6000813590506123b48161238e565b92915050565b600080604083850312156123d1576123d0612042565b5b60006123df8582860161228f565b92505060206123f0858286016123a5565b9150509250929050565b600080fd5b600080fd5b7f4e487b7100000000000000000000000000000000000000000000000000000000600052604160045260246000fd5b61243c8261214d565b810181811067ffffffffffffffff8211171561245b5761245a612404565b5b80604052505050565b600061246e612038565b905061247a8282612433565b919050565b600067ffffffffffffffff82111561249a57612499612404565b5b6124a38261214d565b9050602081019050919050565b82818337600083830152505050565b60006124d26124cd8461247f565b612464565b9050828152602081018484840111156124ee576124ed6123ff565b5b6124f98482856124b0565b509392505050565b600082601f830112612516576125156123fa565b5b81356125268482602086016124bf565b91505092915050565b6000806000806080858703121561254957612548612042565b5b60006125578782880161228f565b94505060206125688782880161228f565b9350506040612579878288016121da565b925050606085013567ffffffffffffffff81111561259a57612599612047565b5b6125a687828801612501565b91505092959194509250565b600067ffffffffffffffff8211156125cd576125cc612404565b5b6125d68261214d565b9050602081019050919050565b60006125f66125f1846125b2565b612464565b905082815260208101848484011115612612576126116123ff565b5b61261d8482856124b0565b509392505050565b600082601f83011261263a576126396123fa565b5b813561264a8482602086016125e3565b91505092915050565b6000806040838503121561266a57612669612042565b5b60006126788582860161228f565b925050602083013567ffffffffffffffff81111561269957612698612047565b5b6126a585828601612625565b9150509250929050565b600080604083850312156126c6576126c5612042565b5b60006126d48582860161228f565b92505060206126e58582860161228f565b9150509250929050565b7f4e487b7100000000000000000000000000000000000000000000000000000000600052602260045260246000fd5b6000600282049050600182168061273657607f821691505b602082108103612749576127486126ef565b5b50919050565b7f4552433732313a20617070726f76616c20746f2063757272656e74206f776e6560008201527f7200000000000000000000000000000000000000000000000000000000000000602082015250565b60006127ab602183612112565b91506127b68261274f565b604082019050919050565b600060208201905081810360008301526127da8161279e565b9050919050565b7f4552433732313a20617070726f76652063616c6c6572206973206e6f7420746f60008201527f6b656e206f776e6572206f7220617070726f76656420666f7220616c6c000000602082015250565b600061283d603d83612112565b9150612848826127e1565b604082019050919050565b6000602082019050818103600083015261286c81612830565b9050919050565b7f4552433732313a2063616c6c6572206973206e6f7420746f6b656e206f776e6560008201527f72206f7220617070726f76656400000000000000000000000000000000000000602082015250565b60006128cf602d83612112565b91506128da82612873565b604082019050919050565b600060208201905081810360008301526128fe816128c2565b9050919050565b7f455243373231456e756d657261626c653a206f776e657220696e646578206f7560008201527f74206f6620626f756e6473000000000000000000000000000000000000000000602082015250565b6000612961602b83612112565b915061296c82612905565b604082019050919050565b6000602082019050818103600083015261299081612954565b9050919050565b7f455243373231456e756d657261626c653a20676c6f62616c20696e646578206f60008201527f7574206f6620626f756e64730000000000000000000000000000000000000000602082015250565b60006129f3602c83612112565b91506129fe82612997565b604082019050919050565b60006020820190508181036000830152612a22816129e6565b9050919050565b7f4e487b7100000000000000000000000000000000000000000000000000000000600052603260045260246000fd5b7f4552433732313a20696e76616c696420746f6b656e2049440000000000000000600082015250565b6000612a8e601883612112565b9150612a9982612a58565b602082019050919050565b60006020820190508181036000830152612abd81612a81565b9050919050565b7f4552433732313a2061646472657373207a65726f206973206e6f74206120766160008201527f6c6964206f776e65720000000000000000000000000000000000000000000000602082015250565b6000612b20602983612112565b9150612b2b82612ac4565b604082019050919050565b60006020820190508181036000830152612b4f81612b13565b9050919050565b7f4552433732313a207472616e736665722066726f6d20696e636f72726563742060008201527f6f776e6572000000000000000000000000000000000000000000000000000000602082015250565b6000612bb2602583612112565b9150612bbd82612b56565b604082019050919050565b60006020820190508181036000830152612be181612ba5565b9050919050565b7f4552433732313a207472616e7366657220746f20746865207a65726f2061646460008201527f7265737300000000000000000000000000000000000000000000000000000000602082015250565b6000612c44602483612112565b9150612c4f82612be8565b604082019050919050565b60006020820190508181036000830152612c7381612c37565b9050919050565b7f4552433732313a20617070726f766520746f2063616c6c657200000000000000600082015250565b6000612cb0601983612112565b9150612cbb82612c7a565b602082019050919050565b60006020820190508181036000830152612cdf81612ca3565b9050919050565b7f4552433732313a207472616e7366657220746f206e6f6e20455243373231526560008201527f63656976657220696d706c656d656e7465720000000000000000000000000000602082015250565b6000612d42603283612112565b9150612d4d82612ce6565b604082019050919050565b60006020820190508181036000830152612d7181612d35565b9050919050565b600081905092915050565b6000612d8e82612107565b612d988185612d78565b9350612da8818560208601612123565b80840191505092915050565b6000612dc08285612d83565b9150612dcc8284612d83565b91508190509392505050565b7f4552433732313a206d696e7420746f20746865207a65726f2061646472657373600082015250565b6000612e0e602083612112565b9150612e1982612dd8565b602082019050919050565b60006020820190508181036000830152612e3d81612e01565b9050919050565b7f4552433732313a20746f6b656e20616c7265616479206d696e74656400000000600082015250565b6000612e7a601c83612112565b9150612e8582612e44565b602082019050919050565b60006020820190508181036000830152612ea981612e6d565b9050919050565b7f45524337323155524953746f726167653a2055524920736574206f66206e6f6e60008201527f6578697374656e7420746f6b656e000000000000000000000000000000000000602082015250565b6000612f0c602e83612112565b9150612f1782612eb0565b604082019050919050565b60006020820190508181036000830152612f3b81612eff565b9050919050565b60008190508160005260206000209050919050565b60006020601f8301049050919050565b600082821b905092915050565b600060088302612fa47fffffffffffffffffffffffffffffffffffffffffffffffffffffffffffffffff82612f67565b612fae8683612f67565b95508019841693508086168417925050509392505050565b6000819050919050565b6000612feb612fe6612fe1846121b9565b612fc6565b6121b9565b9050919050565b6000819050919050565b61300583612fd0565b61301961301182612ff2565b848454612f74565b825550505050565b600090565b61302e613021565b613039818484612ffc565b505050565b5b8181101561305d57613052600082613026565b60018101905061303f565b5050565b601f8211156130a25761307381612f42565b61307c84612f57565b8101602085101561308b578190505b61309f61309785612f57565b83018261303e565b50505b505050565b600082821c905092915050565b60006130c5600019846008026130a7565b1980831691505092915050565b60006130de83836130b4565b9150826002028217905092915050565b6130f782612107565b67ffffffffffffffff8111156131105761310f612404565b5b61311a825461271e565b613125828285613061565b600060209050601f8311600181146131585760008415613146578287015190505b61315085826130d2565b8655506131b8565b601f19841661316686612f42565b60005b8281101561318e57848901518255600182019150602085019450602081019050613169565b868310156131ab57848901516131a7601f8916826130b4565b8355505b6001600288020188555050505b505050505050565b600081519050919050565b600082825260208201905092915050565b60006131e7826131c0565b6131f181856131cb565b9350613201818560208601612123565b61320a8161214d565b840191505092915050565b600060808201905061322a600083018761224e565b613237602083018661224e565b61324460408301856122e4565b818103606083015261325681846131dc565b905095945050505050565b60008151905061327081612078565b92915050565b60006020828403121561328c5761328b612042565b5b600061329a84828501613261565b91505092915050565b7f455243373231456e756d657261626c653a20636f6e736563757469766520747260008201527f616e7366657273206e6f7420737570706f727465640000000000000000000000602082015250565b60006132ff603583612112565b915061330a826132a3565b604082019050919050565b6000602082019050818103600083015261332e816132f2565b9050919050565b7f4e487b7100000000000000000000000000000000000000000000000000000000600052601260045260246000fd5b7f4e487b7100000000000000000000000000000000000000000000000000000000600052601160045260246000fd5b600061339e826121b9565b91506133a9836121b9565b92508282039050818111156133c1576133c0613364565b5b92915050565b7f4e487b7100000000000000000000000000000000000000000000000000000000600052603160045260246000fdfea2646970667358221220c22f2c4bc919dd150976ef7fca2297f317adb224f6d443733f892c03c09e9b6164736f6c63430008150033",
  "linkReferences": {},
  "deployedLinkReferences": {}
}